:0300000002004CAF
:100008000000E2FBEAF2802C0000E0FBEAF080242A
:10001800E6B50202EBF62200E2B50202EBF222009C
:10002800E0B50202EBF02230F6E0A88220F5D3EA30
:10003800C6F582228B822230F6E6A88220F5D98086
:01004800CFE8
:0300A5000200490D
:030049000200CEE4
:1000A800750880750925E4F50AF50B750C02F50D40
:1000B800F50E750F01F51075110190000875F040E7
:1000C8001200F80206881200A89001F41206A19006
:0A00D80009A475F08012036B80EF9D
:1009940030313233343536373839414243444546B1
:0E09A40048656C6C6F2C776F726C640D0A00E6
:06007B00E478FFF6D8FD59
:100059007900E94400601B7A009009C2780175A013
:1000690000E493F2A308B8000205A0D9F4DAF27506
:02007900A0FFE6
:1000E200AF82747F5587FEEF0354804EF58722E579
:1000F2008224FF929C2285822185832285F02374AB
:10010200052521FAE43522FBAC238A828B838CF00D
:10011200120906F5821203B174062521FAE435228A
:10012200FBAC238A828B838CF0120906F5821203C0
:10013200B874082521FAE43522FBAC238A828B832A
:100142008CF0120906F5821200E274072521FAE406
:100152003522FBAC238A828B838CF0120906F5824E
:1001620012038C74092521FAE43522FBAC238A821E
:100172008B838CF0120906F5821200F1740425219A
:10018200FAE43522FBAC238A828B838CF0120906B7
:10019200F582C004C003C00212039CD002D003D077
:1001A200048A828B838CF0120906FFBF010280064B
:1001B200BF02028064227524007525007526007531
:1001C2002702AD21AE22AF238D828E838FF01209DA
:1001D20006FDA3120906FEA3120906FFA3120906D1
:1001E200FC7532018D828E838FF0EC12027AE582E9
:1001F2008583F0F52885F0297516007582031208AB
:10020200BF75132475140075154075820112048A96
:10021200751601758201020470752A00752B00752E
:100222002C00752D30E4F52EF52FAD21AE22AF2333
:100232008D828E838FF0120906FDA3120906FEA39A
:10024200120906FFA3120906FC7532028D828E8303
:100252008FF0EC12027AE5828583F0F53085F03179
:100262007516017582031208BF90002A75F04012BC
:10027200078E758201020787AC82AD83AEF0FF7BE9
:10028200007401B53202800A7402B5320280710232
:100292000322E58730E734C3E49C74E19DE49EE4E5
:1002A2009F5004900000228C168D178E188F199083
:1002B200E100E4F5F01206DF85823385833485F0B0
:1002C20035F536AA33C3E49AFB8055C374809C7417
:1002D200709DE49EE49F5004900000228C168D17BE
:1002E2008E188F19907080E4F5F01206DF85823344
:1002F20085833485F035F536AA33C3E49AFB802032
:100302008C168D178E188F1990460075F005E41221
:1003120006DFAC82AD83C3E49CF582E49DF58322C3
:100322007F008B06E44203EE42078B828F83228595
:10033200998222A298E433F58222A299E433F582CB
:100342002285829910990280FB22E582FFC4540F14
:100352009009B293F582C007120343D007740F5F6E
:100362009009B293F582020343AD82AE83AFF08D62
:10037200828E838FF0120906FC600E8C991099020E
:1003820080FB0DBD00E90E80E622AF82E598543F66
:10039200FEEF030354C04EF59822AF82BF0104530F
:1003A200C8CF22BF0208E5C854CF4430F5C822E5C1
:1003B2008224FF92AC22E582FF5401B40100B39281
:1003C20000E43324FF92BC74EF55B7FEEF035401EF
:0F03D200B40100B39200E433C454F04EF5B722E7
:1009B2003031323334353637383941424344454693
:1003E100AE82AF837C007D008E168F178D188D191C
:1003F10090000BE4F5F0C005C004120922AA82ABFB
:1004010083AEF0FF75160CE4F517F518F5198A821D
:100411008B838EF0EF1206DFAA82AB83AEF0FFD0A2
:1004210004D005E51224FC402CE51275F003A490DC
:1004310004347302044002044602044C0204527C58
:10044100FF7D1F80107CFF7DFF800A7CFF7D008087
:10045100047CFF7D00C3EA9CEB9D400490000022D8
:100461000CBC00010DECC39AF582ED9BF58322AF24
:1004710082BF00028005BF010F8007E51624FF92AD
:100481008C22E51624FF928E22AF82AC13AD14AEFE
:10049100158C018D028E0389828A838BF0120906E5
:1004A100F5168F82C007C006C005C0041205A4D08E
:1004B10004D005D006D00774032CF9E43DFA8E036D
:1004C10089828A838BF0120906F5168F82C007C0D4
:1004D10006C005C0041205CED004D005D006D00751
:1004E10074042CF9E43DFA8E0389828A838BF0121D
:1004F1000906F516A3120906F5178F82C007C00673
:10050100C005C0041205F3D004D005D006D007748D
:10051100012CF9E43DFA8E0389828A838BF012095A
:1005210006F5168F82C007C006C005C00412060D6D
:10053100D004D005D006D00774022CFCE43DFD8C1C
:10054100828D838EF0120906F5168F82020627AF7F
:1005510082BF00028005BF01288013AF8C7E00ACF2
:100561008A7D00EC4206ED42078E828F8322AF8D99
:100571007E00AC8B7D00EC4206ED42078E828F83BC
:100581002290000022AF82BF00028005BF011080CF
:1005910007A28DE433F58222A28FE433F58222751E
:1005A100820022AF82BF00028005BF011F800F744D
:1005B100FB5589FFE51625E025E04FF5892274BF3B
:1005C1005589FFE516030354C04FF58922AF82BF59
:1005D10000028005BF011A800BE58954FCFFE51676
:1005E1004FF58922E58954CFFFE516C454F04FF544
:1005F1008922AF82BF00028005BF010F80078517E6
:100601008C85168A2285178D85168B22AF82BF00B5
:10061100028005BF010F8007E51624FF92A922E59C
:100621001624FF92AB22AF82BF00028005BF0153A7
:100631008028E5165401B40100B39201E43324FF8C
:1006410092B974FD55B7FFE516035401B40100B327
:100651009201E43325E04FF5B722E5165401B401C8
:1006610000B39201E43324FF92BB74F755B7FFE561
:1006710016035401B40100B39201E433C40354F8E6
:100681004FF5B722C2AF22D2AF229001C022C006DD
:10069100C0070507D506FDD507FAD007D0062222E7
:1006A100C005C006C007C083C08212068B858206C2
:1006B100858307D082D083C374FF9582F58274FF4E
:1006C1009583F583E5825583F4600B12068FA3E5CC
:0E06D100825583F470F5D007D006D0052222A2
:100081007800E84400600A790175A000E4F309D81A
:10009100FC7800E84400600C7900900001E4F0A3D2
:0400A100D8FCD9FAB4
:1006DF00FB7A20E4FCFDFEFFE5822582F582E583AF
:1006EF0033F583E5F033F5F0EB33FB4017DAE980B0
:1006FF0042E5822582F582E58333F583E5F033F514
:10070F00F0EB33FBEC33FCED33FDEE33FEEF33FF59
:10071F00EC9516ED9517EE9518EF95194013EC958E
:10072F0016FCED9517FDEE9518FEEF9519FF438218
:10073F0001DABEEB22AE82AF838E168F17751800CB
:10074F0075190090000BE4F5F0120922AC82AD830D
:10075F00AEF0FF75160CE4F517F518F5198C828DB0
:10076F00838EF0EF1206DFAC82AD83C3E49CF5827B
:10077F00E49DF58322C2CF22E58224FF92CA22ADE7
:10078F0082AE83AFF08D028E038F048A828B838CAF
:10079F00F0120906F582C007C006C005120899D0ED
:1007AF0005D006D00774032DFAE43EFB8F048A822E
:1007BF008B838CF0120906F582C007C006C00512A4
:1007CF0008A3D005D006D00774062DFAE43EFB8FA0
:1007DF00048A828B838CF0120906FAA3120906FB96
:1007EF008A828B83C007C006C0051208ADD005D022
:1007FF0006D00774042DFAE43EFB8F048A828B83A4
:10080F008CF0120906FAA3120906FB8A828B83C0A9
:10081F0007C006C0051208B6D005D006D007740170
:10082F002DFAE43EFB8F048A828B838CF01209062B
:10083F00F582C007C006C0051208D6D005D006D075
:10084F000774022DFDE43EFE8D828E838FF0120918
:10085F0006F5820208DDAFCB7E00ACCA7D00EC420C
:10086F0006ED42078E828F8322AFCD7E00ACCC7D0A
:10087F0000EC4206ED42078E828F8322A291E43371
:10088F00F58222A2CFE433F58222AF82E5C854CF9E
:10089F004FF5C822AF82E5C854CE4FF5C822AE82BD
:1008AF00AF838FCB8ECA22AE82AF838FCD8ECC22F9
:1008BF00E582FF30E006E51624FF92CDEF30E1062A
:1008CF00E51624FF92CC22E58224FF92AD22E58229
:1008DF00035401B40100B39202E43324FF92BD74B8
:1008EF00DF55B7FFA202E433C42354E04FF5B7221C
:0708FF00E58224FF92CB22E9
:0D004C00758136120990E5826003020049BB
:1009060020F71430F6148883A88220F507E6A8831A
:1009160075830022E280F7E49322E022AAF0FBE549
:10092600828516F0A4FCADF0E5838516F0A42DFDB6
:10093600E435F0FEE5828517F0A42DFDE5F03EFED8
:10094600E433FFEA8516F0A42EFEE5F03FFFE583CB
:100956008517F0A42EFEE5F03FFFE5828518F0A48A
:100966002EFEE5F03FFFEB8516F0A42FFFEA851774
:10097600F0A42FFFE5838518F0A42FFFE5828519E3
:0E098600F0A42F8EF08D838C822275820022C9
:00000001FF
